{
  "contractName": "Lottery",
  "abi": [
    {
      "inputs": [],
      "stateMutability": "nonpayable",
      "type": "constructor"
    },
    {
      "inputs": [],
      "name": "admin",
      "outputs": [
        {
          "internalType": "address payable",
          "name": "",
          "type": "address"
        }
      ],
      "stateMutability": "view",
      "type": "function",
      "constant": true
    },
    {
      "inputs": [
        {
          "internalType": "uint256",
          "name": "",
          "type": "uint256"
        }
      ],
      "name": "players",
      "outputs": [
        {
          "internalType": "address payable",
          "name": "",
          "type": "address"
        }
      ],
      "stateMutability": "view",
      "type": "function",
      "constant": true
    },
    {
      "inputs": [
        {
          "internalType": "uint256",
          "name": "",
          "type": "uint256"
        },
        {
          "internalType": "uint256",
          "name": "",
          "type": "uint256"
        }
      ],
      "name": "winners",
      "outputs": [
        {
          "internalType": "address",
          "name": "player",
          "type": "address"
        },
        {
          "internalType": "uint256",
          "name": "position",
          "type": "uint256"
        },
        {
          "internalType": "uint256",
          "name": "amount",
          "type": "uint256"
        },
        {
          "internalType": "uint256",
          "name": "serial",
          "type": "uint256"
        }
      ],
      "stateMutability": "view",
      "type": "function",
      "constant": true
    },
    {
      "stateMutability": "payable",
      "type": "receive",
      "payable": true
    },
    {
      "inputs": [],
      "name": "totalPlayed",
      "outputs": [
        {
          "internalType": "uint256",
          "name": "",
          "type": "uint256"
        }
      ],
      "stateMutability": "view",
      "type": "function",
      "constant": true
    },
    {
      "inputs": [],
      "name": "totalPlayer",
      "outputs": [
        {
          "internalType": "uint256",
          "name": "",
          "type": "uint256"
        }
      ],
      "stateMutability": "view",
      "type": "function",
      "constant": true
    },
    {
      "inputs": [],
      "name": "balance",
      "outputs": [
        {
          "internalType": "uint256",
          "name": "",
          "type": "uint256"
        }
      ],
      "stateMutability": "view",
      "type": "function",
      "constant": true
    },
    {
      "inputs": [],
      "name": "play",
      "outputs": [],
      "stateMutability": "payable",
      "type": "function",
      "payable": true
    }
  ],
  "bytecode": "0x608060405234801561001057600080fd5b5033600360006101000a81548173ffffffffffffffffffffffffffffffffffffffff021916908373ffffffffffffffffffffffffffffffffffffffff1602179055506001600081905550610f44806100696000396000f3fe6080604052600436106100745760003560e01c8063b69ef8a81161004e578063b69ef8a8146101a8578063c494a080146101d3578063f71d96cb146101fe578063f851a4401461023b5761012e565b80630efc88651461013357806393e84cd914610173578063a06594d31461017d5761012e565b3661012e576000349050670de0b6b3a764000081146100c8576040517f08c379a00000000000000000000000000000000000000000000000000000000081526004016100bf906108da565b60405180910390fd5b6002339080600181540180825580915050600190039060005260206000200160009091909190916101000a81548173ffffffffffffffffffffffffffffffffffffffff021916908373ffffffffffffffffffffffffffffffffffffffff16021790555050005b600080fd5b34801561013f57600080fd5b5061015a60048036038101906101559190610935565b610266565b60405161016a94939291906109c5565b60405180910390f35b61017b6102c3565b005b34801561018957600080fd5b506101926104a2565b60405161019f9190610a0a565b60405180910390f35b3480156101b457600080fd5b506101bd6104b8565b6040516101ca9190610a0a565b60405180910390f35b3480156101df57600080fd5b506101e8610550565b6040516101f59190610a0a565b60405180910390f35b34801561020a57600080fd5b5061022560048036038101906102209190610a25565b61055d565b6040516102329190610a73565b60405180910390f35b34801561024757600080fd5b5061025061059c565b60405161025d9190610a73565b60405180910390f35b6001602052816000526040600020602052806000526040600020600091509150508060000160009054906101000a900473ffffffffffffffffffffffffffffffffffffffff16908060010154908060020154908060030154905084565b600360009054906101000a900473ffffffffffffffffffffffffffffffffffffffff1673ffffffffffffffffffffffffffffffffffffffff163373ffffffffffffffffffffffffffffffffffffffff1614610353576040517f08c379a000000000000000000000000000000000000000000000000000000000815260040161034a90610ada565b60405180910390fd5b60006002805490509050600a8110156103a1576040517f08c379a000000000000000000000000000000000000000000000000000000000815260040161039890610b46565b60405180910390fd5b6103ab60016105c2565b6103b560026105c2565b6103bf60036105c2565b600067ffffffffffffffff8111156103da576103d9610b66565b5b6040519080825280602002602001820160405280156104085781602001602082028036833780820191505090505b506002908051906020019061041e9291906107d6565b50600360009054906101000a900473ffffffffffffffffffffffffffffffffffffffff1673ffffffffffffffffffffffffffffffffffffffff166108fc479081150290604051600060405180830381858888f19350505050158015610487573d6000803e3d6000fd5b5060008081548092919061049a90610bc4565b919050555050565b600060016000546104b39190610c0d565b905090565b6000600360009054906101000a900473ffffffffffffffffffffffffffffffffffffffff1673ffffffffffffffffffffffffffffffffffffffff163373ffffffffffffffffffffffffffffffffffffffff161461054a576040517f08c379a000000000000000000000000000000000000000000000000000000000815260040161054190610c8d565b60405180910390fd5b47905090565b6000600280549050905090565b6002818154811061056d57600080fd5b906000526020600020016000915054906101000a900473ffffffffffffffffffffffffffffffffffffffff1681565b600360009054906101000a900473ffffffffffffffffffffffffffffffffffffffff1681565b600081600b6105d19190610c0d565b6105d96107a0565b6105e39190610cdc565b90506000600282815481106105fb576105fa610d0d565b5b9060005260206000200160009054906101000a900473ffffffffffffffffffffffffffffffffffffffff1690506000670de0b6b3a76400008460056106409190610c0d565b61064a9190610d3c565b90508173ffffffffffffffffffffffffffffffffffffffff166108fc829081150290604051600060405180830381858888f19350505050158015610692573d6000803e3d6000fd5b5060405180608001604052808373ffffffffffffffffffffffffffffffffffffffff1681526020018581526020018281526020016000548152506001600080548152602001908152602001600020600086815260200190815260200160002060008201518160000160006101000a81548173ffffffffffffffffffffffffffffffffffffffff021916908373ffffffffffffffffffffffffffffffffffffffff1602179055506020820151816001015560408201518160020155606082015181600301559050506002838154811061076d5761076c610d0d565b5b9060005260206000200160006101000a81549073ffffffffffffffffffffffffffffffffffffffff021916905550505050565b6000444260026040516020016107b893929190610ed5565b6040516020818303038152906040528051906020012060001c905090565b82805482825590600052602060002090810192821561084f579160200282015b8281111561084e5782518260006101000a81548173ffffffffffffffffffffffffffffffffffffffff021916908373ffffffffffffffffffffffffffffffffffffffff160217905550916020019190600101906107f6565b5b50905061085c9190610860565b5090565b5b80821115610879576000816000905550600101610861565b5090565b600082825260208201905092915050565b7f506c656173652073656e64206f6e6c79206f6e652065746865722e0000000000600082015250565b60006108c4601b8361087d565b91506108cf8261088e565b602082019050919050565b600060208201905081810360008301526108f3816108b7565b9050919050565b600080fd5b6000819050919050565b610912816108ff565b811461091d57600080fd5b50565b60008135905061092f81610909565b92915050565b6000806040838503121561094c5761094b6108fa565b5b600061095a85828601610920565b925050602061096b85828601610920565b9150509250929050565b600073ffffffffffffffffffffffffffffffffffffffff82169050919050565b60006109a082610975565b9050919050565b6109b081610995565b82525050565b6109bf816108ff565b82525050565b60006080820190506109da60008301876109a7565b6109e760208301866109b6565b6109f460408301856109b6565b610a0160608301846109b6565b95945050505050565b6000602082019050610a1f60008301846109b6565b92915050565b600060208284031215610a3b57610a3a6108fa565b5b6000610a4984828501610920565b91505092915050565b6000610a5d82610975565b9050919050565b610a6d81610a52565b82525050565b6000602082019050610a886000830184610a64565b92915050565b7f4f6e6c792061646d696e2063616e2073746172742061207370696e2e00000000600082015250565b6000610ac4601c8361087d565b9150610acf82610a8e565b602082019050919050565b60006020820190508181036000830152610af381610ab7565b9050919050565b7f466577206d6f7265207469636b65747320746f20626520736f6c642e00000000600082015250565b6000610b30601c8361087d565b9150610b3b82610afa565b602082019050919050565b60006020820190508181036000830152610b5f81610b23565b9050919050565b7f4e487b7100000000000000000000000000000000000000000000000000000000600052604160045260246000fd5b7f4e487b7100000000000000000000000000000000000000000000000000000000600052601160045260246000fd5b6000610bcf826108ff565b91507fffffffffffffffffffffffffffffffffffffffffffffffffffffffffffffffff821415610c0257610c01610b95565b5b600182019050919050565b6000610c18826108ff565b9150610c23836108ff565b925082821015610c3657610c35610b95565b5b828203905092915050565b7f41726520796f752061646d696e3f000000000000000000000000000000000000600082015250565b6000610c77600e8361087d565b9150610c8282610c41565b602082019050919050565b60006020820190508181036000830152610ca681610c6a565b9050919050565b7f4e487b7100000000000000000000000000000000000000000000000000000000600052601260045260246000fd5b6000610ce7826108ff565b9150610cf2836108ff565b925082610d0257610d01610cad565b5b828206905092915050565b7f4e487b7100000000000000000000000000000000000000000000000000000000600052603260045260246000fd5b6000610d47826108ff565b9150610d52836108ff565b9250817fffffffffffffffffffffffffffffffffffffffffffffffffffffffffffffffff0483118215151615610d8b57610d8a610b95565b5b828202905092915050565b6000819050919050565b610db1610dac826108ff565b610d96565b82525050565b600081549050919050565b600081905092915050565b60008190508160005260206000209050919050565b610deb81610a52565b82525050565b6000610dfd8383610de2565b60208301905092915050565b60008160001c9050919050565b600073ffffffffffffffffffffffffffffffffffffffff82169050919050565b6000610e49610e4483610e09565b610e16565b9050919050565b6000610e5c8254610e36565b9050919050565b6000600182019050919050565b6000610e7b82610db7565b610e858185610dc2565b9350610e9083610dcd565b8060005b83811015610ec857610ea582610e50565b610eaf8882610df1565b9750610eba83610e63565b925050600181019050610e94565b5085935050505092915050565b6000610ee18286610da0565b602082019150610ef18285610da0565b602082019150610f018284610e70565b915081905094935050505056fea2646970667358221220e2ec213b00eaf41ff8a0d8a1551019800fa7fd7642e4865dd6fe54cd8e2bffea64736f6c634300080a0033",
  "immutableReferences": {},
  "source": "// SPDX-License-Identifier: MIT\npragma solidity >=0.4.22 <0.9.0;\n\ncontract Lottery {\n    struct Winner {\n        address player;\n        uint256 position;\n        uint256 amount;\n        uint256 serial;\n    }\n\n    // Winner[] winners;\n    uint256 serial;\n\n    mapping(uint256 => mapping(uint256 => Winner)) public winners;\n\n    address payable[] public players;\n    address payable public admin;\n\n    constructor() {\n        // Initialize the admin address to the creator of the contract.\n        admin = payable(msg.sender);\n        serial = 1;\n    }\n\n    receive() external payable {\n        uint256 eth = msg.value;\n        require(eth == 1 ether, \"Please send only one ether.\");\n\n        // Add the sender to the list of players.\n        players.push(payable(msg.sender));\n    }\n\n    function totalPlayed() public view returns (uint256) {\n        return serial - 1;\n    }\n\n    function totalPlayer() public view returns (uint256) {\n        return players.length;\n    }\n\n    function balance() public view returns (uint256) {\n        require(msg.sender == admin, \"Are you admin?\");\n        return address(this).balance;\n    }\n\n    function play() public payable {\n        require(msg.sender == admin, \"Only admin can start a spin.\");\n\n        uint256 numberOfPlayers = players.length;\n        require(numberOfPlayers >= 10, \"Few more tickets to be sold.\");\n\n        selectWinner(1);\n        selectWinner(2);\n        selectWinner(3);\n\n        players = new address payable[](0);\n\n        // Transfer profit to admin\n        admin.transfer(address(this).balance);\n        serial++;\n    }\n\n    function random() private view returns (uint256) {\n        return\n            uint256(\n                keccak256(\n                    abi.encodePacked(block.difficulty, block.timestamp, players)\n                )\n            );\n    }\n\n    function selectWinner(uint256 position) private {\n        uint256 winnerAt = random() % (11 - position);\n        address payable winner = players[winnerAt];\n        uint256 amount = (5 - position) * 1 ether;\n        winner.transfer(amount);\n        // winners.push(Winner(winner, position, amount, serial));\n\n        winners[serial][position] = Winner(winner, position, amount, serial);\n        delete players[winnerAt];\n    }\n}\n",
  "sourcePath": "D:\\practice\\blockchain\\lottery-truffle\\back\\contracts\\Lottery.sol",
  "compiler": {
    "name": "solc",
    "version": "0.8.10+commit.fc410830.Emscripten.clang"
  },
  "schemaVersion": "3.4.4",
  "updatedAt": "2022-01-30T07:05:36.747Z",
  "networkType": "ethereum",
  "devdoc": {
    "kind": "dev",
    "methods": {},
    "version": 1
  },
  "userdoc": {
    "kind": "user",
    "methods": {},
    "version": 1
  }
}