{
  "contractName": "Lottery",
  "abi": [
    {
      "inputs": [],
      "stateMutability": "nonpayable",
      "type": "constructor"
    },
    {
      "inputs": [],
      "name": "admin",
      "outputs": [
        {
          "internalType": "address payable",
          "name": "",
          "type": "address"
        }
      ],
      "stateMutability": "view",
      "type": "function",
      "constant": true
    },
    {
      "inputs": [
        {
          "internalType": "uint256",
          "name": "",
          "type": "uint256"
        }
      ],
      "name": "players",
      "outputs": [
        {
          "internalType": "address payable",
          "name": "",
          "type": "address"
        }
      ],
      "stateMutability": "view",
      "type": "function",
      "constant": true
    },
    {
      "inputs": [
        {
          "internalType": "uint256",
          "name": "",
          "type": "uint256"
        },
        {
          "internalType": "uint256",
          "name": "",
          "type": "uint256"
        }
      ],
      "name": "winners",
      "outputs": [
        {
          "internalType": "address",
          "name": "player",
          "type": "address"
        },
        {
          "internalType": "uint256",
          "name": "position",
          "type": "uint256"
        },
        {
          "internalType": "uint256",
          "name": "amount",
          "type": "uint256"
        },
        {
          "internalType": "uint256",
          "name": "serial",
          "type": "uint256"
        }
      ],
      "stateMutability": "view",
      "type": "function",
      "constant": true
    },
    {
      "stateMutability": "payable",
      "type": "receive",
      "payable": true
    },
    {
      "inputs": [],
      "name": "totalPlayer",
      "outputs": [
        {
          "internalType": "uint256",
          "name": "",
          "type": "uint256"
        }
      ],
      "stateMutability": "view",
      "type": "function",
      "constant": true
    },
    {
      "inputs": [],
      "name": "balance",
      "outputs": [
        {
          "internalType": "uint256",
          "name": "",
          "type": "uint256"
        }
      ],
      "stateMutability": "view",
      "type": "function",
      "constant": true
    },
    {
      "inputs": [],
      "name": "play",
      "outputs": [],
      "stateMutability": "payable",
      "type": "function",
      "payable": true
    }
  ],
  "bytecode": "0x608060405234801561001057600080fd5b5033600360006101000a81548173ffffffffffffffffffffffffffffffffffffffff021916908373ffffffffffffffffffffffffffffffffffffffff1602179055506001600081905550610ee8806100696000396000f3fe6080604052600436106100595760003560e01c80630efc88651461011857806393e84cd914610158578063b69ef8a814610162578063c494a0801461018d578063f71d96cb146101b8578063f851a440146101f557610113565b36610113576000349050670de0b6b3a764000081146100ad576040517f08c379a00000000000000000000000000000000000000000000000000000000081526004016100a49061087e565b60405180910390fd5b6002339080600181540180825580915050600190039060005260206000200160009091909190916101000a81548173ffffffffffffffffffffffffffffffffffffffff021916908373ffffffffffffffffffffffffffffffffffffffff16021790555050005b600080fd5b34801561012457600080fd5b5061013f600480360381019061013a91906108d9565b610220565b60405161014f9493929190610969565b60405180910390f35b61016061027d565b005b34801561016e57600080fd5b5061017761045c565b60405161018491906109ae565b60405180910390f35b34801561019957600080fd5b506101a26104f4565b6040516101af91906109ae565b60405180910390f35b3480156101c457600080fd5b506101df60048036038101906101da91906109c9565b610501565b6040516101ec9190610a17565b60405180910390f35b34801561020157600080fd5b5061020a610540565b6040516102179190610a17565b60405180910390f35b6001602052816000526040600020602052806000526040600020600091509150508060000160009054906101000a900473ffffffffffffffffffffffffffffffffffffffff16908060010154908060020154908060030154905084565b600360009054906101000a900473ffffffffffffffffffffffffffffffffffffffff1673ffffffffffffffffffffffffffffffffffffffff163373ffffffffffffffffffffffffffffffffffffffff161461030d576040517f08c379a000000000000000000000000000000000000000000000000000000000815260040161030490610a7e565b60405180910390fd5b60006002805490509050600a81101561035b576040517f08c379a000000000000000000000000000000000000000000000000000000000815260040161035290610aea565b60405180910390fd5b6103656001610566565b61036f6002610566565b6103796003610566565b600067ffffffffffffffff81111561039457610393610b0a565b5b6040519080825280602002602001820160405280156103c25781602001602082028036833780820191505090505b50600290805190602001906103d892919061077a565b50600360009054906101000a900473ffffffffffffffffffffffffffffffffffffffff1673ffffffffffffffffffffffffffffffffffffffff166108fc479081150290604051600060405180830381858888f19350505050158015610441573d6000803e3d6000fd5b5060008081548092919061045490610b68565b919050555050565b6000600360009054906101000a900473ffffffffffffffffffffffffffffffffffffffff1673ffffffffffffffffffffffffffffffffffffffff163373ffffffffffffffffffffffffffffffffffffffff16146104ee576040517f08c379a00000000000000000000000000000000000000000000000000000000081526004016104e590610bfd565b60405180910390fd5b47905090565b6000600280549050905090565b6002818154811061051157600080fd5b906000526020600020016000915054906101000a900473ffffffffffffffffffffffffffffffffffffffff1681565b600360009054906101000a900473ffffffffffffffffffffffffffffffffffffffff1681565b600081600b6105759190610c1d565b61057d610744565b6105879190610c80565b905060006002828154811061059f5761059e610cb1565b5b9060005260206000200160009054906101000a900473ffffffffffffffffffffffffffffffffffffffff1690506000670de0b6b3a76400008460056105e49190610c1d565b6105ee9190610ce0565b90508173ffffffffffffffffffffffffffffffffffffffff166108fc829081150290604051600060405180830381858888f19350505050158015610636573d6000803e3d6000fd5b5060405180608001604052808373ffffffffffffffffffffffffffffffffffffffff1681526020018581526020018281526020016000548152506001600080548152602001908152602001600020600086815260200190815260200160002060008201518160000160006101000a81548173ffffffffffffffffffffffffffffffffffffffff021916908373ffffffffffffffffffffffffffffffffffffffff1602179055506020820151816001015560408201518160020155606082015181600301559050506002838154811061071157610710610cb1565b5b9060005260206000200160006101000a81549073ffffffffffffffffffffffffffffffffffffffff021916905550505050565b60004442600260405160200161075c93929190610e79565b6040516020818303038152906040528051906020012060001c905090565b8280548282559060005260206000209081019282156107f3579160200282015b828111156107f25782518260006101000a81548173ffffffffffffffffffffffffffffffffffffffff021916908373ffffffffffffffffffffffffffffffffffffffff1602179055509160200191906001019061079a565b5b5090506108009190610804565b5090565b5b8082111561081d576000816000905550600101610805565b5090565b600082825260208201905092915050565b7f506c656173652073656e64206f6e6c79206f6e652065746865722e0000000000600082015250565b6000610868601b83610821565b915061087382610832565b602082019050919050565b600060208201905081810360008301526108978161085b565b9050919050565b600080fd5b6000819050919050565b6108b6816108a3565b81146108c157600080fd5b50565b6000813590506108d3816108ad565b92915050565b600080604083850312156108f0576108ef61089e565b5b60006108fe858286016108c4565b925050602061090f858286016108c4565b9150509250929050565b600073ffffffffffffffffffffffffffffffffffffffff82169050919050565b600061094482610919565b9050919050565b61095481610939565b82525050565b610963816108a3565b82525050565b600060808201905061097e600083018761094b565b61098b602083018661095a565b610998604083018561095a565b6109a5606083018461095a565b95945050505050565b60006020820190506109c3600083018461095a565b92915050565b6000602082840312156109df576109de61089e565b5b60006109ed848285016108c4565b91505092915050565b6000610a0182610919565b9050919050565b610a11816109f6565b82525050565b6000602082019050610a2c6000830184610a08565b92915050565b7f4f6e6c792061646d696e2063616e2073746172742061207370696e2e00000000600082015250565b6000610a68601c83610821565b9150610a7382610a32565b602082019050919050565b60006020820190508181036000830152610a9781610a5b565b9050919050565b7f466577206d6f7265207469636b65747320746f20626520736f6c642e00000000600082015250565b6000610ad4601c83610821565b9150610adf82610a9e565b602082019050919050565b60006020820190508181036000830152610b0381610ac7565b9050919050565b7f4e487b7100000000000000000000000000000000000000000000000000000000600052604160045260246000fd5b7f4e487b7100000000000000000000000000000000000000000000000000000000600052601160045260246000fd5b6000610b73826108a3565b91507fffffffffffffffffffffffffffffffffffffffffffffffffffffffffffffffff821415610ba657610ba5610b39565b5b600182019050919050565b7f41726520796f752061646d696e3f000000000000000000000000000000000000600082015250565b6000610be7600e83610821565b9150610bf282610bb1565b602082019050919050565b60006020820190508181036000830152610c1681610bda565b9050919050565b6000610c28826108a3565b9150610c33836108a3565b925082821015610c4657610c45610b39565b5b828203905092915050565b7f4e487b7100000000000000000000000000000000000000000000000000000000600052601260045260246000fd5b6000610c8b826108a3565b9150610c96836108a3565b925082610ca657610ca5610c51565b5b828206905092915050565b7f4e487b7100000000000000000000000000000000000000000000000000000000600052603260045260246000fd5b6000610ceb826108a3565b9150610cf6836108a3565b9250817fffffffffffffffffffffffffffffffffffffffffffffffffffffffffffffffff0483118215151615610d2f57610d2e610b39565b5b828202905092915050565b6000819050919050565b610d55610d50826108a3565b610d3a565b82525050565b600081549050919050565b600081905092915050565b60008190508160005260206000209050919050565b610d8f816109f6565b82525050565b6000610da18383610d86565b60208301905092915050565b60008160001c9050919050565b600073ffffffffffffffffffffffffffffffffffffffff82169050919050565b6000610ded610de883610dad565b610dba565b9050919050565b6000610e008254610dda565b9050919050565b6000600182019050919050565b6000610e1f82610d5b565b610e298185610d66565b9350610e3483610d71565b8060005b83811015610e6c57610e4982610df4565b610e538882610d95565b9750610e5e83610e07565b925050600181019050610e38565b5085935050505092915050565b6000610e858286610d44565b602082019150610e958285610d44565b602082019150610ea58284610e14565b915081905094935050505056fea26469706673582212206f64336beb8fa4e663b5b1c10fab3ec5d99935a85df16e6b32c879fec281de0c64736f6c634300080a0033",
  "immutableReferences": {},
  "source": "// SPDX-License-Identifier: MIT\npragma solidity >=0.4.22 <0.9.0;\n\ncontract Lottery {\n    struct Winner {\n        address player;\n        uint256 position;\n        uint256 amount;\n        uint256 serial;\n    }\n\n    // Winner[] winners;\n    uint256 serial;\n\n    mapping(uint256 => mapping(uint256 => Winner)) public winners;\n\n    address payable[] public players;\n    address payable public admin;\n\n    constructor() {\n        // Initialize the admin address to the creator of the contract.\n        admin = payable(msg.sender);\n        serial = 1;\n    }\n\n    receive() external payable {\n        uint256 eth = msg.value;\n        require(eth == 1 ether, \"Please send only one ether.\");\n\n        // Add the sender to the list of players.\n        players.push(payable(msg.sender));\n    }\n\n    function totalPlayer() public view returns (uint256) {\n        return players.length;\n    }\n\n    function balance() public view returns (uint256) {\n        require(msg.sender == admin, \"Are you admin?\");\n        return address(this).balance;\n    }\n\n    function play() public payable {\n        require(msg.sender == admin, \"Only admin can start a spin.\");\n\n        uint256 numberOfPlayers = players.length;\n        require(numberOfPlayers >= 10, \"Few more tickets to be sold.\");\n\n        selectWinner(1);\n        selectWinner(2);\n        selectWinner(3);\n\n        players = new address payable[](0);\n\n        // Transfer profit to admin\n        admin.transfer(address(this).balance);\n        serial++;\n    }\n\n    function random() private view returns (uint256) {\n        return\n            uint256(\n                keccak256(\n                    abi.encodePacked(block.difficulty, block.timestamp, players)\n                )\n            );\n    }\n\n    function selectWinner(uint256 position) private {\n        uint256 winnerAt = random() % (11 - position);\n        address payable winner = players[winnerAt];\n        uint256 amount = (5 - position) * 1 ether;\n        winner.transfer(amount);\n        // winners.push(Winner(winner, position, amount, serial));\n\n        winners[serial][position] = Winner(winner, position, amount, serial);\n        delete players[winnerAt];\n    }\n}\n",
  "sourcePath": "D:\\practice\\blockchain\\lottery-truffle\\back\\contracts\\Lottery.sol",
  "compiler": {
    "name": "solc",
    "version": "0.8.10+commit.fc410830.Emscripten.clang"
  },
  "schemaVersion": "3.4.4",
  "updatedAt": "2022-01-29T13:21:29.746Z",
  "networkType": "ethereum",
  "devdoc": {
    "kind": "dev",
    "methods": {},
    "version": 1
  },
  "userdoc": {
    "kind": "user",
    "methods": {},
    "version": 1
  }
}